:100000000C9446000C9450000C9450000C9450003A
:100010000C9450000C9450000C9450000C94500020
:100020000C9450000C9450000C9450000C94500010
:100030000C9450000C9450000C9450000C94500000
:100040000C9450000C9450000C9450000C945000F0
:100050000C9450000C9450000C9450000C945000E0
:100060000C9450000C9450000C9450000C945000D0
:100070000C9450000C9450000C9450000C945000C0
:100080000C9450000C9450000C94500011241FBE8E
:10009000CFEFD0E1DEBFCDBF0E9452000C949B0099
:1000A0000C9400008FEF81BB80916400837E80936D
:1000B0006400AFEF61E070E04091630042FFA2BBDB
:1000C00043FD35C087E090E031B3FB01082E01C04D
:1000D000EE0F0A94EAF73E2B31BB22B32E2B22BB44
:1000E0002FEF33EC59E0215030405040E1F700C091
:1000F0000000019748F727E030E051B3CB01022E12
:1001000001C0880F0A94EAF7952F982B91BB92B300
:100110008095892382BB5FEF83EC99E0515080404A
:100120009040E1F700C000002150310930F744FD54
:0A013000C3CF12BAC1CFF894FFCF7D
:00000001FF
