:100000000C9446000C945D000C945D000C945D0013
:100010000C945D000C945D000C945F000C945D00EA
:100020000C945D000C945D000C945D000C945D00DC
:100030000C945D000C945D000C945D000C945D00CC
:100040000C945D000C945D000C945D000C945D00BC
:100050000C945D000C945D000C945D000C945D00AC
:100060000C945D000C945D000C945D000C945D009C
:100070000C945D000C945D000C945D000C945D008C
:100080000C945D000C945D000C945D0011241FBE67
:10009000CFEFD0E1DEBFCDBF11E0A0E0B1E0E6EDF3
:1000A000F1E000E00BBF02C007900D92A430B10751
:1000B000D9F70E946B000C94E9000C9400001F9289
:1000C0000F920FB60F921124109203010F900FBEE2
:1000D0000F901F90189578948AB788608ABF8AB766
:1000E0008B7F8ABF8AB782608ABF8AB78E7F8ABFBA
:1000F00089B7806389BF80916400877E80936400A4
:1001000080916500886180936500BD9A8FB5826893
:100110008FBD8EB58B618EBD87E893E197BD86BD9F
:1001200080910101909102019BBD8ABD21E04AEFBF
:1001300050E064EF71E08091630083FF209303013E
:1001400080910301882309F441C080910001882334
:1001500031F1809101019091020105969093020185
:10016000809301018091010190910201843F9140AF
:1001700030F07093020160930101109200018091B0
:100180000101909102019BBD8ABD8FEF9AE633E099
:10019000815090403040E1F700C00000CCCF80910A
:1001A0000101909102010597909302018093010152
:1001B00080910101909102018B3F910500F75093CE
:1001C00002014093010120930001D9CF1BBC1ABC4E
:0601D000B2CFF894FFCF4E
:0401D60001FA000129
:00000001FF
