:100000000C9446000C9450000C9450000C9450003A
:100010000C9450000C9450000C9452000C9450001E
:100020000C9450000C9450000C9450000C94500010
:100030000C9450000C9450000C9450000C94500000
:100040000C9450000C9450000C9450000C945000F0
:100050000C9450000C9450000C9450000C945000E0
:100060000C9450000C9450000C9450000C945000D0
:100070000C9450000C9450000C9450000C945000C0
:100080000C9450000C9450000C94500011241FBE8E
:10009000CFEFD0E1DEBFCDBF0E945C000C946A00C0
:1000A0000C9400001F920F920FB60F9211240F9024
:1000B0000FBE0F901F901895109290008FEC89B989
:1000C000599A549A539A5F9BFECF8CB15D9BFECF99
:0800D0008CB9F9CFF894FFCFC1
:00000001FF
