:100000000C9446000C9450000C9450000C9450003A
:100010000C9450000C9450000C9452000C9450001E
:100020000C9450000C9450000C9450000C94500010
:100030000C9450000C9450000C9450000C94500000
:100040000C9450000C9450000C9450000C945000F0
:100050000C9450000C9450000C9450000C945000E0
:100060000C9450000C9450000C9450000C945000D0
:100070000C9450000C9450000C9450000C945000C0
:100080000C9450000C9450000C94500011241FBE8E
:10009000CFEFD0E1DEBFCDBF0E945C000C947A00B0
:1000A0000C9400001F920F920FB60F9211240F9024
:1000B0000FBE0F901F901895BC9A8BE683BF11BEA0
:1000C00080916400887F80936400809165008760E0
:1000D000809365009AEA2FEF8091630082FD02C051
:1000E00021BFFACF81FD02C091BFF6CF80FDF4CFD2
:0800F00011BEF2CFF894FFCF1E
:00000001FF
