:100000000C9446000C9450000C9450000C9450003A
:100010000C9450000C9450000C9450000C94500020
:100020000C9450000C9450000C9450000C94500010
:100030000C9450000C9450000C9450000C94500000
:100040000C9450000C9450000C9450000C945000F0
:100050000C9450000C9450000C9450000C945000E0
:100060000C9450000C9450000C9450000C945000D0
:100070000C9450000C9450000C9450000C945000C0
:100080000C9450000C9450000C94500011241FBE8E
:10009000CFEFD0E1DEBFCDBF0E9452000C947F00B5
:1000A0000C94000061E070E030E020E041B3CB014F
:1000B000022E01C0880F0A94EAF7942F982B91BB67
:1000C00092B3982B92BB4FEF59E6E8E14150504074
:1000D000E040E1F700C0000092B38095892382BB25
:1000E0004FEF59E688E1415050408040E1F700C0B1
:1000F00000002F5F3F4F28303105C1F6D5CFF8946F
:02010000FFCF2F
:00000001FF
