:100000000C9446000C9450000C9450000C9450003A
:100010000C9450000C9450000C9450000C94500020
:100020000C9450000C9450000C9450000C94500010
:100030000C9450000C9450000C9450000C94500000
:100040000C9450000C9450000C9450000C945000F0
:100050000C9450000C9450000C9450000C945000E0
:100060000C9450000C9450000C9450000C945000D0
:100070000C9450000C9450000C9450000C945000C0
:100080000C9450000C9450000C94500011241FBE8E
:10009000CFEFD0E1DEBFCDBF0E9452000C946F00C5
:1000A0000C9400008FEF81BB41E050E090E080E0D5
:1000B00022B3BA01082E01C0660F0A94EAF7262B74
:1000C00022BB2FEF33ED60E3215030406040E1F779
:1000D00000C0000001968830910551F7E7CFF894F1
:0200E000FFCF50
:00000001FF
