:100000000C9446000C9450000C9450000C9450003A
:100010000C9450000C945D000C9452000C94500011
:100020000C9450000C9450000C9450000C94500010
:100030000C9450000C9450000C9450000C94500000
:100040000C9450000C9450000C9450000C945000F0
:100050000C9450000C9450000C9450000C945000E0
:100060000C9450000C9450000C9450000C945000D0
:100070000C9450000C9450000C9450000C945000C0
:100080000C9450000C9450000C94500011241FBE8E
:10009000CFEFD0E1DEBFCDBF0E946B000C947500A6
:1000A0000C9400001F920F920FB60F92112412BAF7
:1000B0000F900FBE0F901F9018951F920F920FB6C2
:1000C0000F9211248F938FEF82BB8F910F900FBEF1
:1000D0000F901F90189578948AB78E608ABF89B761
:0E00E000806389BF8FEF81BBFFCFF894FFCF05
:00000001FF
